:100000000C942A000C9447000C9447000C94470071
:100010000C9447000C9447000C9447000C94470044
:100020000C9447000C94E6030C9447000C94470092
:100030000C9447000C9447000C9447000C94470024
:100040000C9447000C9447000C9447000C94470014
:100050000C94470011241FBECFE5D8E0DEBFCDBF12
:1000600011E0A0E6B0E0E4E7FAE102C005900D92ED
:10007000A830B107D9F721E0A8E0B1E001C01D9296
:10008000AF36B207E1F70E94CB0C0C94380D0C94FC
:100090000000CF93DF9300D0CDB7DEB786E590E0C8
:1000A000FC018081898389818F7E89838981846A2B
:1000B000898386E590E02981FC012083000086E5A4
:1000C00090E0FC0180818823D4F781E290E0FC017C
:1000D0008081887F8A838A81883019F08A81803183
:1000E00011F480E001C081E00F900F90DF91CF917B
:1000F0000895CF93DF930F92CDB7DEB7198208C072
:100100008981853110F081E008C089818F5F898302
:100110000E9449008823A1F780E00F90DF91CF91E2
:100120000895CF93DF9300D00F92CDB7DEB78B83C6
:1001300083E290E02B81FC01208386E590E0FC01C6
:100140008081898389818F7C89838981846889837F
:1001500086E590E02981FC012083000086E590E09F
:10016000FC0180818823D4F781E290E0FC0180814A
:10017000887F8A838A81883131F08A81883219F0B8
:100180008A81803411F480E006C08A81883311F4BA
:1001900082E001C081E00F900F900F90DF91CF912E
:1001A0000895CF93DF930F92CDB7DEB786E590E049
:1001B000FC018081898389818F7D8983898184691C
:1001C000898386E590E02981FC012083000086E593
:1001D00090E0FC018081882F90E080719927892B25
:1001E000B1F7000000000F90DF91CF910895CF93F9
:1001F000DF93CDB7DEB728970FB6F894DEBF0FBEFA
:10020000CDBF8D837F836E83488719824CC00E9447
:1002100079008C838C81882311F08C8149C08D8179
:10022000880F8D838D810E9491008C838C8188231F
:1002300031F00E94D10089818F5F898334C01B8295
:100240001A8221C08A81882F90E02E813F81820FFF
:10025000931FFC0180810E9491008C838C818230ED
:1002600031F40E94D10089818F5F898313C08C8112
:10027000882331F08A8181508A838B818F5F8B83C1
:100280008A818F5F8A839A818885981718F48B8179
:100290008530C0F29A818885981709F004C00E94C1
:1002A000D10080E005C089818A3008F4B0CF81E0B8
:1002B00028960FB6F894DEBF0FBECDBFDF91CF9169
:1002C0000895CF93DF9300D0CDB7DEB78A8386E55C
:1002D00090E0FC018081898389818F7C89838A8178
:1002E000882321F089818F7B898303C08981806481
:1002F000898389818468898386E590E02981FC016E
:100300002083000086E590E0FC0180818823D4F7FB
:1003100083E290E0FC0180810F900F90DF91CF91FC
:1003200008950F931F93CF93DF9300D000D000D098
:100330000F92CDB7DEB78C837E836D834F838F8121
:10034000882311F481E04DC0198246C00E947900D3
:100350008B838B81882311F08B8143C08C81882F04
:1003600090E0880F991F81608C838C810E9491009E
:100370008B838B81882331F00E94D10089818F5F2C
:1003800089832AC08F8181508F831A8210C08A810D
:10039000882F90E02D813E818901080F191F80E090
:1003A0000E946101F80180838A818F5F8A839A812C
:1003B0008F81981760F38A81882F90E02D813E818C
:1003C0008901080F191F81E00E946101F8018083F3
:1003D0000E94D10080E005C089818A3008F4B6CF40
:1003E00081E027960FB6F894DEBF0FBECDBFDF9138
:1003F000CF911F910F9108950F931F93CF93DF9388
:10040000CDB7DEB72A970FB6F894DEBF0FBECDBFCB
:100410009A83898389819A818139914024F080E986
:1004200091E09A83898389819A81AC01990F660B47
:10043000770B88EE93E0DC019A01AB010E94000D7E
:100440006B837C838D839E830B811C812D813E81F8
:1004500080E092E1AAE7B0E08F839887A987BA8706
:100460006F81788589859A85A90198010E94DE0CA3
:10047000DA01C9014097A109B109B695A7959795E9
:10048000879520E230E0D9018C9381E290E0FC0175
:10049000208181E290E02C7FDC012C9300002A96E1
:1004A0000FB6F894DEBF0FBECDBFDF91CF911F9185
:1004B0000F910895CF93DF93CDB7DEB78FE490E02F
:1004C000FC0110828EE490E0FC0120818EE490E03B
:1004D000277EFC0120838EE490E0FC0120818EE4E5
:1004E00090E02460FC0120838EE490E0FC012081F8
:1004F0008EE490E02D7FFC0120838EE490E0FC01EF
:1005000020818EE490E02E7FFC0120838CE490E03B
:10051000FC011182108210920801109209011092C0
:100520000A0110920B0110920C0110920D01109211
:100530000E0110920F0189E590E0FC01208189E510
:1005400090E02460FC01208378940000DF91CF913B
:1005500008958F929F92AF92BF92CF92DF92EF92C7
:10056000FF920F931F93CF93DF93CDB7DEB72997F9
:100570000FB6F894DEBF0FBECDBF8FE590E0FC0153
:1005800080818983F8948CE490E0FC0180819181E2
:100590008C0120E030E040E050E0BA010A831B8388
:1005A0002C833D834E835F83688779878090080121
:1005B00090900901A0900A01B0900B01C0900C012D
:1005C000D0900D01E0900E01F0900F01282D392DF3
:1005D0004A2D5B2D6C2D7D2D8E2D9F2DAA80BB80ED
:1005E000CC80DD80EE80FF80088519850E940B0D90
:1005F000822E932EA42EB52EC62ED72EE82EF92E9F
:100600008A829B82AC82BD82CE82DF82E886F986B6
:100610008FE590E02981FC0120830A811B812C81D8
:100620003D814E815F8168857985802E912EA22E35
:10063000B32EC42ED52EE62EF72E282D392D4A2D79
:100640005B2D6C2D7D2D8E2D9F2D29960FB6F89448
:10065000DEBF0FBECDBFDF91CF911F910F91FF90F5
:10066000EF90DF90CF90BF90AF909F908F900895C4
:100670008F929F92AF92BF92CF92DF92EF92FF92B2
:100680000F931F93CF93DF93CDB7DEB728970FB6A5
:10069000F894DEBF0FBECDBF8CE490E0FC018081FA
:1006A00091818C0120E030E040E050E0BA01098304
:1006B0001A832B833C834D835E836F83788780907E
:1006C000080190900901A0900A01B0900B01C09020
:1006D0000C01D0900D01E0900E01F0900F01282D3B
:1006E000392D4A2D5B2D6C2D7D2D8E2D9F2DA980B2
:1006F000BA80CB80DC80ED80FE800F8118850E945F
:100700000B0D822E932EA42EB52EC62ED72EE82E9C
:10071000F92E89829A82AB82BC82CD82DE82EF8200
:10072000F88609811A812B813C814D815E816F8120
:100730007885802E912EA22EB32EC42ED52EE62E95
:10074000F72E282D392D4A2D5B2D6C2D7D2D8E2DCC
:100750009F2D28960FB6F894DEBF0FBECDBFDF9158
:10076000CF911F910F91FF90EF90DF90CF90BF90AE
:10077000AF909F908F900895CF93DF930F92CDB756
:10078000DEB78FE590E0FC0180818983F8948CE4EA
:1007900090E0FC0111821082109208011092090170
:1007A00010920A0110920B0110920C0110920D018F
:1007B00010920E0110920F018FE590E02981FC014B
:1007C000208300000F90DF91CF9108951F920F9228
:1007D0000FB60F9211248F929F92AF92BF92CF9239
:1007E000DF92EF92FF922F933F934F935F936F931C
:1007F0007F938F939F93CF93DF93CDB7DEB7809096
:10080000080190900901A0900A01B0900B01C090DE
:100810000C01D0900D01E0900E01F0900F01282DF9
:10082000392D4A2D5B2D6C2D7D2D8E2D9F2D4F5FEB
:100830005F4F6F4F7F4F8F4F9F4F822E932EA42E6F
:10084000B52EC62ED72EE82EF92E80920801909252
:100850000901A0920A01B0920B01C0920C01D09242
:100860000D01E0920E01F0920F010000DF91CF9197
:100870009F918F917F916F915F914F913F912F91B8
:10088000FF90EF90DF90CF90BF90AF909F908F90B0
:100890000F900FBE0F901F9018958F929F92AF925E
:1008A000BF92CF92DF92EF92FF920F931F93CF935D
:1008B000DF93CDB7DEB728970FB6F894DEBF0FBE33
:1008C000CDBF81E00E948F090E94A902822E932E43
:1008D000A42EB52EC62ED72EE82EF92E89829A8206
:1008E000AB82BC82CD82DE82EF82F88600000E945D
:1008F000A902822E932EA42EB52EC62ED72EE82E18
:10090000F92E282D392D4A2D5B2D6C2D7D2D8E2D08
:100910009F2DA980BA80CB80DC80ED80FE800F8186
:1009200018850E94140D822E932EA42EB52EC62E4D
:10093000D72EE82EF92E282D392D4A2D5B2D6C2D22
:100940007D2D8E2D9F2DAEE30E941D0D81F278F23C
:100950000000000028960FB6F894DEBF0FBECDBF92
:10096000DF91CF911F910F91FF90EF90DF90CF908B
:10097000BF90AF909F908F9008958F929F92AF926B
:10098000BF92CF92DF92EF92FF920F931F93CF937C
:10099000DF93CDB7DEB728970FB6F894DEBF0FBE52
:1009A000CDBF82E00E948F090E94A902822E932E61
:1009B000A42EB52EC62ED72EE82EF92E89829A8225
:1009C000AB82BC82CD82DE82EF82F88600000E947C
:1009D000A902822E932EA42EB52EC62ED72EE82E37
:1009E000F92E282D392D4A2D5B2D6C2D7D2D8E2D28
:1009F0009F2DA980BA80CB80DC80ED80FE800F81A6
:100A000018850E94140D822E932EA42EB52EC62E6C
:100A1000D72EE82EF92E282D392D4A2D5B2D6C2D41
:100A20007D2D8E2D9F2DAEE30E941D0D81F278F25B
:100A30000000000028960FB6F894DEBF0FBECDBFB1
:100A4000DF91CF911F910F91FF90EF90DF90CF90AA
:100A5000BF90AF909F908F9008958F929F92AF928A
:100A6000BF92CF92DF92EF92FF92CF93DF93CDB7F9
:100A7000DEB70E94D1090E94BC0300000E94A902B7
:100A8000822E932EA42EB52EC62ED72EE82EF92E0A
:100A9000282D392D4A2D5B2D6C2D7D2D8E2D9F2DD2
:100AA0002A313640410551056105710581059105E1
:100AB00029F320F30E9474060E94BC0300000E94E8
:100AC000A902822E932EA42EB52EC62ED72EE82E46
:100AD000F92E282D392D4A2D5B2D6C2D7D2D8E2D37
:100AE0009F2D24333C404105510561057105810569
:100AF000910529F320F360E083E00E94EA080E9458
:100B0000BC0300000E94A902822E932EA42EB52EB3
:100B1000C62ED72EE82EF92E282D392D4A2D5B2DE5
:100B20006C2D7D2D8E2D9F2D2B38310541055105C6
:100B3000610571058105910529F320F360E083E0EB
:100B40000E94EA080E94BC0300000E94A902822EB3
:100B5000932EA42EB52EC62ED72EE82EF92E282D94
:100B6000392D4A2D5B2D6C2D7D2D8E2D9F2D2B38F3
:100B7000310541055105610571058105910529F38F
:100B800020F360E083E00E94EA080E94BC030000BA
:100B90000E94A902822E932EA42EB52EC62ED72EE9
:100BA000E82EF92E282D392D4A2D5B2D6C2D7D2D0B
:100BB0008E2D9F2DA4E00E941D0D51F348F360E09F
:100BC00082E00E94EA080E94BC0300000E94A90281
:100BD000822E932EA42EB52EC62ED72EE82EF92EB9
:100BE000282D392D4A2D5B2D6C2D7D2D8E2D9F2D81
:100BF000A1E00E941D0D51F348F388E20E948F0985
:100C00008CE00E948F090E944D0486E00E948F09AB
:100C10000E94BD040E9474060000DF91CF91FF90F6
:100C2000EF90DF90CF90BF90AF909F908F900895FE
:100C3000CF93DF9300D00F92CDB7DEB79B838A832B
:100C400019820EC08981882F90E02A813B81820F12
:100C5000931FFC0180810E94B00989818F5F898385
:100C60008981882F90E02A813B81820F931FFC01AC
:100C70008081882339F7000000000F900F900F90BB
:100C8000DF91CF910895CF93DF9300D000D0CDB7FF
:100C9000DEB79B838A836C838C81882F90E0880FDA
:100CA000991F880F991F880F991F80640E948F09D0
:100CB00019820EC08981882F90E02A813B81820FA2
:100CC000931FFC0180810E94B00989818F5F898315
:100CD0008981883078F3000000000F900F900F900A
:100CE0000F90DF91CF910895CF93DF930F92CDB7FF
:100CF000DEB788E08093600080916000898341E0E6
:100D0000CE010196BC0187E20E94F70000000F901F
:100D1000DF91CF910895CF93DF930F92CDB7DEB7D8
:100D20001092600080916000898341E0CE010196BD
:100D3000BC0187E20E94F70000000F90DF91CF9185
:100D400008958F929F92AF92BF92CF92DF92EF92CF
:100D5000FF920F931F93CF93DF93CDB7DEB72D97FD
:100D60000FB6F894DEBF0FBECDBF80916000826FDA
:100D70008A8780916000866F8B87CE010A9641E05A
:100D8000BC0187E20E94F7000E94A902822E932EE6
:100D9000A42EB52EC62ED72EE82EF92E89829A8241
:100DA000AB82BC82CD82DE82EF82F88600000E9498
:100DB000A902822E932EA42EB52EC62ED72EE82E53
:100DC000F92E282D392D4A2D5B2D6C2D7D2D8E2D44
:100DD0009F2DA980BA80CB80DC80ED80FE800F81C2
:100DE00018850E94140D822E932EA42EB52EC62E89
:100DF000D72EE82EF92E282D392D4A2D5B2D6C2D5E
:100E00007D2D8E2D9F2DA1E00E941D0D81F278F287
:100E1000CE010A96019641E0BC0187E20E94F700EC
:100E20000E94A902822E932EA42EB52EC62ED72E56
:100E3000E82EF92E89829A82AB82BC82CD82DE8234
:100E4000EF82F88600000E94A902822E932EA42E23
:100E5000B52EC62ED72EE82EF92E282D392D4A2D47
:100E60005B2D6C2D7D2D8E2D9F2DA980BA80CB8082
:100E7000DC80ED80FE800F8118850E94140D822E8B
:100E8000932EA42EB52EC62ED72EE82EF92E282D61
:100E9000392D4A2D5B2D6C2D7D2D8E2D9F2DA1E0A2
:100EA0000E941D0D81F278F2CE010C9641E0BC014A
:100EB00087E20E94910189878985882311F08FEF4D
:100EC000FDC0CE010A9641E0BC0187E20E94F70016
:100ED0000E94A902822E932EA42EB52EC62ED72EA6
:100EE000E82EF92E89829A82AB82BC82CD82DE8284
:100EF000EF82F88600000E94A902822E932EA42E73
:100F0000B52EC62ED72EE82EF92E282D392D4A2D96
:100F10005B2D6C2D7D2D8E2D9F2DA980BA80CB80D1
:100F2000DC80ED80FE800F8118850E94140D822EDA
:100F3000932EA42EB52EC62ED72EE82EF92E282DB0
:100F4000392D4A2D5B2D6C2D7D2D8E2D9F2DA1E0F1
:100F50000E941D0D81F278F2CE010A96019641E0C1
:100F6000BC0187E20E94F7000E94A902822E932E04
:100F7000A42EB52EC62ED72EE82EF92E89829A825F
:100F8000AB82BC82CD82DE82EF82F88600000E94B6
:100F9000A902822E932EA42EB52EC62ED72EE82E71
:100FA000F92E282D392D4A2D5B2D6C2D7D2D8E2D62
:100FB0009F2DA980BA80CB80DC80ED80FE800F81E0
:100FC00018850E94140D822E932EA42EB52EC62EA7
:100FD000D72EE82EF92E282D392D4A2D5B2D6C2D7C
:100FE0007D2D8E2D9F2DA1E00E941D0D81F278F2A6
:100FF000CE010C96019641E0BC0187E20E9491016E
:1010000089878985882311F08FEF58C0CE010A9611
:1010100041E0BC0187E20E94F7000E94A902822EF3
:10102000932EA42EB52EC62ED72EE82EF92E898209
:101030009A82AB82BC82CD82DE82EF82F88600008B
:101040000E94A902822E932EA42EB52EC62ED72E34
:10105000E82EF92E282D392D4A2D5B2D6C2D7D2D56
:101060008E2D9F2DA980BA80CB80DC80ED80FE8004
:101070000F8118850E94140D822E932EA42EB52E5A
:10108000C62ED72EE82EF92E282D392D4A2D5B2D70
:101090006C2D7D2D8E2D9F2DA1E00E941D0D81F2C6
:1010A00078F28C85982F90788985892B89878D8512
:1010B00082958F709985892B898789852D960FB6A2
:1010C000F894DEBF0FBECDBFDF91CF911F910F917E
:1010D000FF90EF90DF90CF90BF90AF909F908F9058
:1010E00008958F929F92AF92BF92CF92DF92EF922C
:1010F000FF920F931F93CF93DF93CDB7DEB729975E
:101100000FB6F894DEBF0FBECDBF0E94A902822E9B
:10111000932EA42EB52EC62ED72EE82EF92E898218
:101120009A82AB82BC82CD82DE82EF82F88608C0D2
:101130000E94A10689878985882314F0898537C094
:101140000E94A902822E932EA42EB52EC62ED72E33
:10115000E82EF92E282D392D4A2D5B2D6C2D7D2D55
:101160008E2D9F2DA980BA80CB80DC80ED80FE8003
:101170000F8118850E94140D822E932EA42EB52E59
:10118000C62ED72EE82EF92E282D392D4A2D5B2D6F
:101190006C2D7D2D8E2D9F2D2F39364841405105C8
:1011A000610571058105910519F210F280E029961B
:1011B0000FB6F894DEBF0FBECDBFDF91CF911F9168
:1011C0000F91FF90EF90DF90CF90BF90AF909F90E6
:1011D0008F9008958F929F92AF92BF92CF92DF929D
:1011E000EF92FF920F931F93CF93DF93CDB7DEB7AC
:1011F0002D970FB6F894DEBF0FBECDBF8C876D87DD
:101200001A8619861B868C858295807F8C879091A3
:1012100060008C85892B882F90E02985822B898717
:10122000909160008C85892B8460882F90E02A85BE
:10123000822B8A87909160008C85892B882F90E083
:101240002B85822B8B878D85882349F0898581604A
:1012500089878A8581608A878B8581608B87CE01AB
:10126000099643E0BC0187E20E94F7000E94A902B0
:10127000822E932EA42EB52EC62ED72EE82EF92E12
:1012800089829A82AB82BC82CD82DE82EF82F8862E
:1012900000000E94A902822E932EA42EB52EC62EE7
:1012A000D72EE82EF92E282D392D4A2D5B2D6C2DA9
:1012B0007D2D8E2D9F2DA980BA80CB80DC80ED8086
:1012C000FE800F8118850E94140D822E932EA42E6D
:1012D000B52EC62ED72EE82EF92E282D392D4A2DC3
:1012E0005B2D6C2D7D2D8E2D9F2DA1E00E941D0D5F
:1012F00081F278F2000000002D960FB6F894DEBF60
:101300000FBECDBFDF91CF911F910F91FF90EF9056
:10131000DF90CF90BF90AF909F908F900895CF9324
:10132000DF9300D00F92CDB7DEB78B830E94710898
:101330001A8219828B8182958F7089838B818F703D
:101340008A83898160E00E94EA088A8160E00E94C5
:10135000EA0800000F900F900F90DF91CF91089551
:10136000CF93DF9300D00F92CDB7DEB78B830E946F
:1013700071081A8219828B8182958F7089838B8183
:101380008F708A83898161E00E94EA088A8161E026
:101390000E94EA0800000F900F900F90DF91CF910C
:1013A0000895CF93DF93CDB7DEB784E690E00E9437
:1013B000FC010000DF91CF910895CF93DF93CDB76B
:1013C000DEB729970FB6F894DEBF0FBECDBF8D8371
:1013D0007F836E83598748871A82198232C01C82A4
:1013E0001B8226C029813A81C901880F991F880F65
:1013F000991F820F931F880F991F2B813C81820FA9
:10140000931F87589F4FFC0180819D81981759F445
:1014100029818E819F81FC0120832B81888599857C
:10142000FC01208312C08B819C8101969C838B835D
:101430008B819C810A97B4F289819A8101969A8363
:10144000898389819A810C9754F229960FB6F89472
:10145000DEBF0FBECDBFDF91CF910895CF93DF9355
:1014600000D0CDB7DEB781E390E0FC01208181E3BD
:1014700090E0206FFC01208382E390E0FC018081FA
:1014800082E390E02FEFFC0120831A82198211C0C1
:1014900089819A81865E9E4FFC01108289819A81A2
:1014A0008E5B9E4FFC01108289819A8101969A83FE
:1014B000898389819A8188975CF3000000000F90EE
:1014C0000F90DF91CF910895CF93DF9300D0CDB7E8
:1014D000DEB71A82198211C089819A81865E9E4F79
:1014E000FC01208189819A818E5B9E4FFC012083C3
:1014F00089819A8101969A83898389819A818897C3
:101500005CF3000000000F900F90DF91CF910895E1
:10151000CF93DF9300D0CDB7DEB71A8219820BC00C
:1015200089819A81865E9E4FFC01108289819A8111
:1015300001969A83898389819A8188978CF3000028
:1015400000000F900F90DF91CF910895CF93DF931C
:1015500000D0CDB7DEB71A82198211C089819A8175
:10156000865E9E4FFC01108289819A818E5B9E4F20
:10157000FC01108289819A8101969A8389838981ED
:101580009A8188975CF3000000000F900F90DF9124
:10159000CF910895CF93DF9300D00F92CDB7DEB7F0
:1015A0008B838B81833449F490916D0181E0992381
:1015B00009F080E080936D018AC080916D018823DD
:1015C00069F08B8180330CF47DC08B818A330CF001
:1015D00079C08B81805380936A0179C08B8181347B
:1015E000E1F580916E01882309F46EC080916E014F
:1015F000882F90E00197865E9E4FFC012081CE01EE
:101600000296AC01CE010196BC01822F0E94DD0939
:101610008981282F30E08A81882F90E0BC016F5F9C
:101620007F4F80916E01882F90E0AC0141505109AD
:10163000C901880F991F880F991F820F931F880F68
:10164000991F860F971F87589F4FFC012081CA0161
:10165000865E9E4FFC0120833AC08B81823499F4D0
:1016600080916E01882391F180916E01882F90E026
:101670000197865E9E4FFC01108280916E01815021
:1016800080936E0124C08B81843469F40E94640AC3
:1016900080916E01882F90E090936C0180936B0194
:1016A00010926E0114C080916E01882F90E0865ECA
:1016B0009E4F2B81FC01208380916E018F5F809370
:1016C0006E0105C0000003C0000001C000000F90C3
:1016D0000F900F90DF91CF9108958F929F92AF92CC
:1016E000BF92CF92DF92EF92FF92CF93DF9300D021
:1016F00000D0CDB7DEB71B8284E0898384E08A8383
:1017000062C082E390E0FC018081482F8981282F0C
:1017100030E081E090E002C0880F991F2A95E2F73F
:101720008095242F282382E390E0FC0120831A82F5
:101730002FC080E390E0FC018081882F90E02A8117
:10174000222F30E002C0959587952A95E2F78170A7
:101750009927892BD1F48981882F90E09C0124500E
:1017600031098A81882F90E0220F331F220F331F07
:10177000820F931F8F599F4FFC0180818C838C8136
:101780000E94CA0A81E0809318018A818F5F8A8350
:101790008A81843070F282E390E0FC018081482FDE
:1017A0008981282F30E081E090E002C0880F991FE6
:1017B0002A95E2F7242F282B82E390E0FC01208376
:1017C00089818F5F89838981883008F49ACF0E944C
:1017D000A902822E932EA42EB52EC62ED72EE82E29
:1017E000F92E8092100190921101A0921201B092F4
:1017F0001301C0921401D0921501E0921601F092EB
:1018000017018B810F900F900F900F90DF91CF9168
:10181000FF90EF90DF90CF90BF90AF909F908F9010
:1018200008952F923F924F925F926F927F928F9284
:101830009F92AF92BF92CF92DF92EF92FF920F935F
:101840001F93CF93DF930F92CDB7DEB70E94A9020B
:10185000A22EB32EC42ED52EE62EF72E082F192F2A
:10186000209010013090110140901201509013010E
:1018700060901401709015018090160190901701EE
:101880002A2D3B2D4C2D5D2D6E2D7F2D802F912FE0
:10189000A22CB32CC42CD52CE62CF72C082D192DFA
:1018A0000E94140D822E932EA42EB52EC62ED72E56
:1018B000E82EF92E282D392D4A2D5B2D6C2D7D2DEE
:1018C0008E2D9F2D25333C40410551056105710545
:1018D00081059105F9F0F0F00E946D0B89830E945B
:1018E000A902822E932EA42EB52EC62ED72EE82E18
:1018F000F92E8092100190921101A0921201B092E3
:101900001301C0921401D0921501E0921601F092D9
:10191000170101C000000F90DF91CF911F910F912F
:10192000FF90EF90DF90CF90BF90AF909F908F90FF
:101930007F906F905F904F903F902F900895CF933E
:10194000DF9300D00F92CDB7DEB7809118018823C6
:10195000D9F00E944D0480916D01882379F081EFC8
:1019600090E00E94180680916A01805D89831A8246
:101970001B82CE0101960E94180604C08AE191E004
:101980000E9418061092180100000F900F900F90FF
:10199000DF91CF910895CF93DF93CDB7DEB70E944B
:1019A0005A020E942E0A0E942D058AEF90E00E94A2
:1019B00018060E94110C0E949F0CFBCFA1E21A2E68
:1019C000AA1BBB1BFD010DC0AA1FBB1FEE1FFF1FE3
:1019D000A217B307E407F50720F0A21BB30BE40B33
:1019E000F50B661F771F881F991F1A9469F760957A
:1019F0007095809590959B01AC01BD01CF01089534
:101A00000E94290DA59F900DB49F900DA49F800D5D
:101A1000911D112408952A0D3B1D4C1D5D1D6E1D49
:101A20007F1D801F911F08952A193B094C095D09EC
:101A30006E097F09800B910B08950024A7FD009487
:101A40002A17300540055005600570058005900592
:101A50000895A29FB001B39FC001A39F700D811D87
:101A60001124911DB29F700D811D1124911D0895A7
:041A7000F894FFCF18
:101A7400083132334134353642373839432A30233A
:101A8400445A6202000000000031313131313131F9
:101A940031313132616263414243323232336465FF
:101AA40066444546333333346768694748493434B8
:101AB40034356A6B6C4A4B4C353535366D6E6F4D2B
:101AC4004E4F363636377071727350515253373821
:101AD400747576545556383838397778797A575832
:101AE400595A392A2A2A2A2A2A2A2A2A2A30202EE4
:101AF4002C3030303030302323232323232323235B
:101B0400237461726765743A2000656E746572208F
:081B14006D65737361676500E4
:00000001FF
