:100000000C942A000C9447000C9447000C94470071
:100010000C9447000C9447000C9447000C94470044
:100020000C9447000C9485050C9447000C944700F1
:100030000C9447000C9447000C9447000C94470024
:100040000C9447000C9447000C9447000C94470014
:100050000C94470011241FBECFE5D8E0DEBFCDBF12
:1000600011E0A0E6B0E0E6E0F8E302C005900D92F2
:10007000A034B107D9F721E0A0E4B1E001C01D929E
:10008000A636B207E1F70E94AD170C94011C0C9440
:100090000000CF93DF9300D000D0CDB7DEB76A83E6
:1000A0007B838C8387E390E0FC01208187E390E0F1
:1000B000206AFC0120838DE290E0FC01808189832D
:1000C00080E5898389818F7789838A81882F90E071
:1000D0008038910509F482C0813891050CF08BC0FD
:1000E0008034910509F46AC0813491050CF083C015
:1000F0008032910509F452C0813291050CF07BC029
:1001000080319105D9F1813191050CF074C08830AE
:10011000910521F1893091050CF06DC08230910577
:1001200019F0049771F067C08EE290E0FC01208125
:100130008EE290E02160FC01208389818C7F89839D
:100140005AC08EE290E0FC0120818EE290E02E7F8A
:10015000FC01208389818C7F89834DC08EE290E0F1
:10016000FC0120818EE290E02160FC0120838981E6
:100170008D7F89838981816089833DC08EE290E093
:10018000FC0120818EE290E02E7FFC01208389819A
:100190008D7F89838981816089832DC08EE290E083
:1001A000FC0120818EE290E02160FC0120838981A6
:1001B0008260898389818E7F89831DC08EE290E071
:1001C000FC0120818EE290E02E7FFC01208389815A
:1001D0008260898389818E7F89830DC08EE290E061
:1001E000FC0120818EE290E02E7FFC01208389813A
:1001F0008360898300008B81882321F48981806258
:10020000898303C089818F7D89838C81843070F4D8
:100210008981837F89838C81882F90E0880F991F43
:10022000880F991F982F8981892B89838DE290E00F
:100230002981FC01208300000F900F900F900F90F8
:10024000DF91CF910895CF93DF93CDB7DEB787E3EA
:1002500090E020E4FC0120838DE290E020E4FC01AA
:1002600020830000DF91CF910895CF93DF930F9209
:10027000CDB7DEB789838FE290E02981FC0120832E
:1002800000008EE290E0FC0180818823D4F78FE2A9
:1002900090E0FC0180810F90DF91CF910895CF9382
:1002A000DF93CDB7DEB78DE290E0FC0120818DE2D7
:1002B00090E02F7BFC0120830000DF91CF91089517
:1002C000CF93DF9300D000D00F92CDB7DEB78FE58C
:1002D00090E0FC0180818983F8948091400188231B
:1002E00009F049C088E390E0FC0180818A8380E1C5
:1002F0008B8387E390E09D838C838C819D81FC01BF
:1003000090818B818923882349F488E390E0FC0164
:10031000208188E390E02061FC01208387E390E066
:10032000FC01208187E390E02061FC0120838DE2C5
:1003300090E0FC0120818DE290E02061FC012083AF
:100340008DE290E0FC0120818DE290E02064FC01D0
:10035000208387E390E0FC01208187E390E0206820
:10036000FC01208387E390E0FC01208187E390E09B
:100370002062FC012083809140018F5F80934001C7
:100380008FE590E02981FC01208300000F900F9001
:100390000F900F900F90DF91CF910895CF93DF933F
:1003A0000F92CDB7DEB789838FE290E02981FC01FF
:1003B000208300008EE290E0FC0180818823D4F746
:1003C0008FE290E0FC0180810F90DF91CF91089542
:1003D000CF93DF9300D0CDB7DEB786E590E0FC0188
:1003E0008081898389818F7E89838981846A8983D9
:1003F00086E590E02981FC012083000086E590E0FD
:10040000FC0180818823D4F781E290E0FC018081A7
:10041000887F8A838A81883019F08A81803111F43B
:1004200080E001C081E00F900F90DF91CF9108959F
:10043000CF93DF930F92CDB7DEB7198208C08981C1
:10044000853110F081E008C089818F5F89830E9427
:10045000E8018823A1F780E00F90DF91CF91089504
:10046000CF93DF9300D00F92CDB7DEB78B8383E2BB
:1004700090E02B81FC01208386E590E0FC018081E7
:10048000898389818F7C898389818468898386E5D2
:1004900090E02981FC012083000086E590E0FC01CA
:1004A00080818823D4F781E290E0FC018081887FFD
:1004B0008A838A81883131F08A81883219F08A8171
:1004C000803411F480E006C08A81883311F482E020
:1004D00001C081E00F900F900F90DF91CF910895B0
:1004E000CF93DF930F92CDB7DEB786E590E0FC01A6
:1004F0008081898389818F7D8983898184698983CA
:1005000086E590E02981FC012083000086E590E0EB
:10051000FC018081882F90E080719927892BB1F7A9
:10052000000000000F90DF91CF910895CF93DF93EB
:10053000CDB7DEB728970FB6F894DEBF0FBECDBF9C
:100540008D837F836E83488719824CC00E94180276
:100550008C838C81882311F08C8149C08D81880F18
:100560008D838D810E9430028C838C81882331F0B1
:100570000E94700289818F5F898334C01B821A8236
:1005800021C08A81882F90E02E813F81820F931FA6
:10059000FC0180810E9430028C838C81823031F496
:1005A0000E94700289818F5F898313C08C818823A8
:1005B00031F08A8181508A838B818F5F8B838A811E
:1005C0008F5F8A839A818885981718F48B8185308C
:1005D000C0F29A818885981709F004C00E947002C1
:1005E00080E005C089818A3008F4B0CF81E0289688
:1005F0000FB6F894DEBF0FBECDBFDF91CF91089547
:10060000CF93DF9300D0CDB7DEB78A8386E590E045
:10061000FC018081898389818F7C89838A818823F9
:1006200021F089818F7B898303C0898180648983DC
:1006300089818468898386E590E02981FC01208393
:10064000000086E590E0FC0180818823D4F783E2F6
:1006500090E0FC0180810F900F90DF91CF91089581
:100660000F931F93CF93DF9300D000D000D00F9251
:10067000CDB7DEB78C837E836D834F838F818823D4
:1006800011F481E04DC0198246C00E9418028B838C
:100690008B81882311F08B8143C08C81882F90E05F
:1006A000880F991F81608C838C810E9430028B831C
:1006B0008B81882331F00E94700289818F5F89834A
:1006C0002AC08F8181508F831A8210C08A81882F1F
:1006D00090E02D813E818901080F191F80E00E9462
:1006E0000003F80180838A818F5F8A839A818F81DA
:1006F000981760F38A81882F90E02D813E818901CF
:10070000080F191F81E00E940003F80180830E94F6
:10071000700280E005C089818A3008F4B6CF81E09C
:1007200027960FB6F894DEBF0FBECDBFDF91CF91F5
:100730001F910F9108950F931F93CF93DF93CDB720
:10074000DEB72A970FB6F894DEBF0FBECDBF9A83EF
:10075000898389819A818139914024F080E991E0EF
:100760009A83898389819A81AC01990F660B770BF3
:1007700088EE93E0DC019A01AB010E9452196B8371
:100780007C838D839E830B811C812D813E8180E043
:1007900092E1AAE7B0E08F839887A987BA876F8133
:1007A000788589859A85A90198010E943019DA0116
:1007B000C9014097A109B109B695A7959795879565
:1007C00020E230E0D9018C9381E290E0FC012081AD
:1007D00081E290E02C7FDC012C9300002A960FB67A
:1007E000F894DEBF0FBECDBFDF91CF911F910F9167
:1007F0000895CF93DF93CDB7DEB78FE490E0FC018F
:1008000010828EE490E0FC0120818EE490E0277E4F
:10081000FC0120838EE490E0FC0120818EE490E0D6
:100820002460FC0120838EE490E0FC0120818EE4B2
:1008300090E02D7FFC0120838EE490E0FC0120817C
:100840008EE490E02E7FFC0120838CE490E0FC019C
:100850001182108210925E0110925F01109260016D
:100860001092610110926201109263011092640172
:100870001092650189E590E0FC01208189E590E016
:100880002460FC01208378940000DF91CF910895CB
:100890008F929F92AF92BF92CF92DF92EF92FF9290
:1008A0000F931F93CF93DF93CDB7DEB729970FB682
:1008B000F894DEBF0FBECDBF8FE590E0FC018081D4
:1008C0008983F8948CE490E0FC01808191818C0113
:1008D00020E030E040E050E0BA010A831B832C8323
:1008E0003D834E835F836887798780905E01909017
:1008F0005F01A0906001B0906101C0906201D09052
:100900006301E0906401F0906501282D392D4A2D96
:100910005B2D6C2D7D2D8E2D9F2DAA80BB80CC80D4
:10092000DD80EE80FF80088519850E945D19822E8A
:10093000932EA42EB52EC62ED72EE82EF92E8A82FF
:100940009B82AC82BD82CE82DF82E886F9868FE50B
:1009500090E02981FC0120830A811B812C813D814B
:100960004E815F8168857985802E912EA22EB32ECF
:10097000C42ED52EE62EF72E282D392D4A2D5B2D8F
:100980006C2D7D2D8E2D9F2D29960FB6F894DEBFF0
:100990000FBECDBFDF91CF911F910F91FF90EF90D0
:1009A000DF90CF90BF90AF909F908F9008958F92DF
:1009B0009F92AF92BF92CF92DF92EF92FF920F93EE
:1009C0001F93CF93DF93CDB7DEB728970FB6F89478
:1009D000DEBF0FBECDBF8CE490E0FC018081918131
:1009E0008C0120E030E040E050E0BA0109831A8336
:1009F0002B833C834D835E836F83788780905E0179
:100A000090905F01A0906001B0906101C090620180
:100A1000D0906301E0906401F0906501282D392D9C
:100A20004A2D5B2D6C2D7D2D8E2D9F2DA980BA809A
:100A3000CB80DC80ED80FE800F8118850E945D19DF
:100A4000822E932EA42EB52EC62ED72EE82EF92E4A
:100A500089829A82AB82BC82CD82DE82EF82F88666
:100A600009811A812B813C814D815E816F8178855E
:100A7000802E912EA22EB32EC42ED52EE62EF72E2A
:100A8000282D392D4A2D5B2D6C2D7D2D8E2D9F2DE2
:100A900028960FB6F894DEBF0FBECDBFDF91CF9181
:100AA0001F910F91FF90EF90DF90CF90BF90AF908C
:100AB0009F908F900895CF93DF930F92CDB7DEB7BD
:100AC0008FE590E0FC0180818983F8948CE490E0CC
:100AD000FC011182108210925E0110925F0110924F
:100AE00060011092610110926201109263011092F4
:100AF0006401109265018FE590E02981FC0120835B
:100B000000000F90DF91CF9108951F920F920FB6C2
:100B10000F9211248F929F92AF92BF92CF92DF9249
:100B2000EF92FF922F933F934F935F936F937F9337
:100B30008F939F93CF93DF93CDB7DEB780905E0105
:100B400090905F01A0906001B0906101C09062013F
:100B5000D0906301E0906401F0906501282D392D5B
:100B60004A2D5B2D6C2D7D2D8E2D9F2D4F5F5F4F60
:100B70006F4F7F4F8F4F9F4F822E932EA42EB52EF7
:100B8000C62ED72EE82EF92E80925E0190925F013C
:100B9000A0926001B0926101C0926201D0926301A3
:100BA000E0926401F09265010000DF91CF919F9186
:100BB0008F917F916F915F914F913F912F91FF9016
:100BC000EF90DF90CF90BF90AF909F908F900F905D
:100BD0000FBE0F901F9018958F929F92AF92BF9269
:100BE000CF92DF92EF92FF920F931F93CF93DF93F9
:100BF000CDB7DEB728970FB6F894DEBF0FBECDBFD6
:100C000081E00E942E0B0E944804822E932EA42E77
:100C1000B52EC62ED72EE82EF92E89829A82AB8267
:100C2000BC82CD82DE82EF82F88600000E944804FA
:100C3000822E932EA42EB52EC62ED72EE82EF92E58
:100C4000282D392D4A2D5B2D6C2D7D2D8E2D9F2D20
:100C5000A980BA80CB80DC80ED80FE800F81188572
:100C60000E946619822E932EA42EB52EC62ED72E44
:100C7000E82EF92E282D392D4A2D5B2D6C2D7D2D3A
:100C80008E2D9F2DAEE30E946F1981F278F2000045
:100C9000000028960FB6F894DEBF0FBECDBFDF91DF
:100CA000CF911F910F91FF90EF90DF90CF90BF9069
:100CB000AF909F908F9008958F929F92AF92BF9226
:100CC000CF92DF92EF92FF920F931F93CF93DF9318
:100CD000CDB7DEB728970FB6F894DEBF0FBECDBFF5
:100CE00082E00E942E0B0E944804822E932EA42E96
:100CF000B52EC62ED72EE82EF92E89829A82AB8287
:100D0000BC82CD82DE82EF82F88600000E94480419
:100D1000822E932EA42EB52EC62ED72EE82EF92E77
:100D2000282D392D4A2D5B2D6C2D7D2D8E2D9F2D3F
:100D3000A980BA80CB80DC80ED80FE800F81188591
:100D40000E946619822E932EA42EB52EC62ED72E63
:100D5000E82EF92E282D392D4A2D5B2D6C2D7D2D59
:100D60008E2D9F2DAEE30E946F1981F278F2000064
:100D7000000028960FB6F894DEBF0FBECDBFDF91FE
:100D8000CF911F910F91FF90EF90DF90CF90BF9088
:100D9000AF909F908F9008958F929F92AF92BF9245
:100DA000CF92DF92EF92FF92CF93DF93CDB7DEB772
:100DB0000E94700B0E945B0500000E944804822E76
:100DC000932EA42EB52EC62ED72EE82EF92E282D22
:100DD000392D4A2D5B2D6C2D7D2D8E2D9F2D2A3189
:100DE000364041055105610571058105910529F3DD
:100DF00020F30E9413080E945B0500000E94480433
:100E0000822E932EA42EB52EC62ED72EE82EF92E86
:100E1000282D392D4A2D5B2D6C2D7D2D8E2D9F2D4E
:100E200024333C404105510561057105810591055B
:100E300029F320F360E083E00E94890A0E945B05A9
:100E400000000E944804822E932EA42EB52EC62E9A
:100E5000D72EE82EF92E282D392D4A2D5B2D6C2DFD
:100E60007D2D8E2D9F2D2B383105410551056105B6
:100E700071058105910529F320F360E083E00E946C
:100E8000890A0E945B0500000E944804822E932E6E
:100E9000A42EB52EC62ED72EE82EF92E282D392DAC
:100EA0004A2D5B2D6C2D7D2D8E2D9F2D2B383105E0
:100EB00041055105610571058105910529F320F36F
:100EC00060E083E00E94890A0E945B0500000E94A6
:100ED0004804822E932EA42EB52EC62ED72EE82E91
:100EE000F92E282D392D4A2D5B2D6C2D7D2D8E2D23
:100EF0009F2DA4E00E946F1951F348F360E082E057
:100F00000E94890A0E945B0500000E944804822E0C
:100F1000932EA42EB52EC62ED72EE82EF92E282DD0
:100F2000392D4A2D5B2D6C2D7D2D8E2D9F2DA1E011
:100F30000E946F1951F348F388E20E942E0B8CE057
:100F40000E942E0B0E94EC0586E00E942E0B0E9450
:100F50005C060E9413080000DF91CF91FF90EF9094
:100F6000DF90CF90BF90AF909F908F900895CF93D8
:100F7000DF9300D00F92CDB7DEB79B838A831982AF
:100F80000EC08981882F90E02A813B81820F931FB8
:100F9000FC0180810E944F0B89818F5F8983898149
:100FA000882F90E02A813B81820F931FFC01808172
:100FB000882339F7000000000F900F900F90DF9109
:100FC000CF910895CF93DF9300D000D0CDB7DEB797
:100FD0009B838A836C838C81882F90E0880F991F74
:100FE000880F991F880F991F80640E942E0B198209
:100FF0000EC08981882F90E02A813B81820F931F48
:10100000FC0180810E944F0B89818F5F89838981D8
:10101000883078F3000000000F900F900F900F9031
:10102000DF91CF910895CF93DF930F92CDB7DEB7C5
:1010300088E08093620080916200898341E0CE0164
:101040000196BC0187E20E94960200000F90DF919A
:10105000CF910895CF93DF930F92CDB7DEB7109263
:10106000620080916200898341E0CE010196BC015B
:1010700087E20E94960200000F90DF91CF910895C1
:101080008F929F92AF92BF92CF92DF92EF92FF9298
:101090000F931F93CF93DF93CDB7DEB72D970FB686
:1010A000F894DEBF0FBECDBF80916200826F8A8749
:1010B00080916200866F8B87CE010A9641E0BC0169
:1010C00087E20E9496020E944804822E932EA42E4C
:1010D000B52EC62ED72EE82EF92E89829A82AB82A3
:1010E000BC82CD82DE82EF82F88600000E94480436
:1010F000822E932EA42EB52EC62ED72EE82EF92E94
:10110000282D392D4A2D5B2D6C2D7D2D8E2D9F2D5B
:10111000A980BA80CB80DC80ED80FE800F811885AD
:101120000E946619822E932EA42EB52EC62ED72E7F
:10113000E82EF92E282D392D4A2D5B2D6C2D7D2D75
:101140008E2D9F2DA1E00E946F1981F278F2CE01C1
:101150000A96019641E0BC0187E20E9496020E9435
:101160004804822E932EA42EB52EC62ED72EE82EFE
:10117000F92E89829A82AB82BC82CD82DE82EF8296
:10118000F88600000E944804822E932EA42EB52ECD
:10119000C62ED72EE82EF92E282D392D4A2D5B2D5F
:1011A0006C2D7D2D8E2D9F2DA980BA80CB80DC806B
:1011B000ED80FE800F8118850E946619822E932E85
:1011C000A42EB52EC62ED72EE82EF92E282D392D79
:1011D0004A2D5B2D6C2D7D2D8E2D9F2DA1E00E9423
:1011E0006F1981F278F2CE010C9641E0BC0187E2E2
:1011F0000E94300389878985882311F08FEFFDC015
:10120000CE010A9641E0BC0187E20E9496020E944C
:101210004804822E932EA42EB52EC62ED72EE82E4D
:10122000F92E89829A82AB82BC82CD82DE82EF82E5
:10123000F88600000E944804822E932EA42EB52E1C
:10124000C62ED72EE82EF92E282D392D4A2D5B2DAE
:101250006C2D7D2D8E2D9F2DA980BA80CB80DC80BA
:10126000ED80FE800F8118850E946619822E932ED4
:10127000A42EB52EC62ED72EE82EF92E282D392DC8
:101280004A2D5B2D6C2D7D2D8E2D9F2DA1E00E9472
:101290006F1981F278F2CE010A96019641E0BC0105
:1012A00087E20E9496020E944804822E932EA42E6A
:1012B000B52EC62ED72EE82EF92E89829A82AB82C1
:1012C000BC82CD82DE82EF82F88600000E94480454
:1012D000822E932EA42EB52EC62ED72EE82EF92EB2
:1012E000282D392D4A2D5B2D6C2D7D2D8E2D9F2D7A
:1012F000A980BA80CB80DC80ED80FE800F811885CC
:101300000E946619822E932EA42EB52EC62ED72E9D
:10131000E82EF92E282D392D4A2D5B2D6C2D7D2D93
:101320008E2D9F2DA1E00E946F1981F278F2CE01DF
:101330000C96019641E0BC0187E20E943003898748
:101340008985882311F08FEF58C0CE010A9641E0BD
:10135000BC0187E20E9496020E944804822E932ECE
:10136000A42EB52EC62ED72EE82EF92E89829A826B
:10137000AB82BC82CD82DE82EF82F88600000E94C2
:101380004804822E932EA42EB52EC62ED72EE82EDC
:10139000F92E282D392D4A2D5B2D6C2D7D2D8E2D6E
:1013A0009F2DA980BA80CB80DC80ED80FE800F81EC
:1013B00018850E946619822E932EA42EB52EC62E55
:1013C000D72EE82EF92E282D392D4A2D5B2D6C2D88
:1013D0007D2D8E2D9F2DA1E00E946F1981F278F254
:1013E0008C85982F90788985892B89878D85829522
:1013F0008F709985892B898789852D960FB6F894EA
:10140000DEBF0FBECDBFDF91CF911F910F91FF9037
:10141000EF90DF90CF90BF90AF909F908F90089506
:101420008F929F92AF92BF92CF92DF92EF92FF92F4
:101430000F931F93CF93DF93CDB7DEB729970FB6E6
:10144000F894DEBF0FBECDBF0E944804822E932EBB
:10145000A42EB52EC62ED72EE82EF92E89829A827A
:10146000AB82BC82CD82DE82EF82F88608C00E9409
:10147000400889878985882314F0898537C00E94B0
:101480004804822E932EA42EB52EC62ED72EE82EDB
:10149000F92E282D392D4A2D5B2D6C2D7D2D8E2D6D
:1014A0009F2DA980BA80CB80DC80ED80FE800F81EB
:1014B00018850E946619822E932EA42EB52EC62E54
:1014C000D72EE82EF92E282D392D4A2D5B2D6C2D87
:1014D0007D2D8E2D9F2D2F393648414051056105B8
:1014E00071058105910519F210F280E029960FB679
:1014F000F894DEBF0FBECDBFDF91CF911F910F914A
:10150000FF90EF90DF90CF90BF90AF909F908F9023
:1015100008958F929F92AF92BF92CF92DF92EF92F7
:10152000FF920F931F93CF93DF93CDB7DEB72D9725
:101530000FB6F894DEBF0FBECDBF8C876D871A86BD
:1015400019861B868C858295807F8C87909162009E
:101550008C85892B882F90E02985822B8987909113
:1015600062008C85892B8460882F90E02A85822BED
:101570008A87909162008C85892B882F90E02B853B
:10158000822B8B878D85882349F0898581608987A7
:101590008A8581608A878B8581608B87CE010996D9
:1015A00043E0BC0187E20E9496020E944804822E1A
:1015B000932EA42EB52EC62ED72EE82EF92E898274
:1015C0009A82AB82BC82CD82DE82EF82F8860000F6
:1015D0000E944804822E932EA42EB52EC62ED72EFE
:1015E000E82EF92E282D392D4A2D5B2D6C2D7D2DC1
:1015F0008E2D9F2DA980BA80CB80DC80ED80FE806F
:101600000F8118850E946619822E932EA42EB52E66
:10161000C62ED72EE82EF92E282D392D4A2D5B2DDA
:101620006C2D7D2D8E2D9F2DA1E00E946F1981F2D2
:1016300078F2000000002D960FB6F894DEBF0FBEC2
:10164000CDBFDF91CF911F910F91FF90EF90DF9071
:10165000CF90BF90AF909F908F900895CF93DF93DE
:1016600000D00F92CDB7DEB78B830E94100A1A828A
:1016700019828B8182958F7089838B818F708A8389
:10168000898160E00E94890A8A8160E00E94890A5B
:1016900000000F900F900F90DF91CF910895CF939E
:1016A000DF9300D00F92CDB7DEB78B830E94100A74
:1016B0001A8219828B8182958F7089838B818F70BA
:1016C0008A83898161E00E94890A8A8161E00E949F
:1016D000890A00000F900F900F90DF91CF9108952D
:1016E000CF93DF93CDB7DEB784E690E00E949B03F3
:1016F0000000DF91CF910895EF920F93CF93DF9386
:10170000CDB7DEB729970FB6F894DEBF0FBECDBFB9
:101710008B836C834D833F832E830887E98682E722
:1017200090E00E94B70782E08093440181E08093BB
:101730004501109246018C8180934F018D818093E9
:1017400050011092540187E390E0FC018081482F02
:1017500080914F01282F30E081E090E002C0880F97
:10176000991F2A95E2F7582F80915001282F30E0D9
:1017700081E090E002C0880F991F2A95E2F7852B3F
:10178000242F282B87E390E0FC01208388E390E05E
:10179000FC018081482F80915001282F30E081E0AA
:1017A00090E002C0880F991F2A95E2F7242F282B7A
:1017B00088E390E0FC0120838985882341F088E359
:1017C00090E0FC018081807189830E9460010E9409
:1017D000EC058DE790E00E94B7078E819F814885D8
:1017E000BC018B810E94010C8A838A8129960FB6E5
:1017F000F894DEBF0FBECDBFDF91CF910F91EF9078
:101800000895CF93DF93CDB7DEB7C655D1090FB694
:10181000F894DEBF0FBECDBF8BA37DA36CA34EA3F8
:101820000E94EC0587E890E00E94B7078FEF9FEFDA
:10183000909361008093600081E080935301209138
:101840004F019091500181E0291709F480E08093C5
:10185000550184E6282F30E040E050E02BAB3CAB54
:101860004DAB5EAB6BA97CA98DA99EA90E949D1A68
:101870006FA378A789A79AA78FA198A5A9A5BAA5AC
:101880008A839B83AC83BD8320E030E04AEF54E43D
:101890006A817B818C819D810E94541B6FAB78AFE4
:1018A00089AF9AAF2FA938AD49AD5AAD2E833F838A
:1018B0004887598720E030E040E85FE36E817F8110
:1018C000888599850E94F71988232CF481E090E09F
:1018D0009B878A875DC020E03FEF4FE757E46E812A
:1018E0007F81888599850E944F1B18160CF03EC099
:1018F00020E030E040E251E46A817B818C819D816F
:101900000E94541B6BAF7CAF8DAF9EAF8BAD9CAD77
:10191000ADADBEAD8BA79CA7ADA7BEA76BA57CA5A3
:101920008DA59EA50E946E1A23966CAF7DAF8EAFDB
:101930009FAF23972196AEADBFAD2197BB87AA87F6
:1019400010C088EC90E09D878C878C859D850197E1
:10195000F1F79D878C8700008A859B8501979B877F
:101960008A878A859B85892B61F71DC06E817F815F
:10197000888599850E946E1A27966CAF7DAF8EAFD1
:101980009FAF279725962EAD3FAD25973B872A879A
:101990008A859B859F878E878E859F850197F1F726
:1019A0009F878E8700008DE79EA1891710F48DE731
:1019B0008EA36EA185E00E94FD168CA19DA1892BAE
:1019C000A9F46EE086E00E94FD166FE184E00E94BB
:1019D000FD1688E592E0909357018093560180EBC5
:1019E00094E090935901809358012DC08CA19DA142
:1019F0000197A9F466E086E00E94FD166FE184E09D
:101A00000E94FD1688E592E090935701809356015D
:101A100084EA96E0909359018093580114C066E2DD
:101A200086E00E94FD166FE584E00E94FD1680E4CA
:101A300096E0909357018093560188E893E1909344
:101A400059018093580181E08E8F82E08F8F83E06F
:101A500088A384E089A38BA18AA3CE014E9645E09A
:101A6000BC018BE00E94111763E08CE10E94FD161F
:101A700067E08DE10E94FD1620E040E050E062EE5C
:101A800081E090E00E94301720E040E050E061EEFD
:101A900081E090E00E94301760E787E00E94FD1629
:101AA0000E94EC0583E990E00E94B70780E090E097
:101AB000AAEFB3E4888B998BAA8BBB8B20E030E034
:101AC0004AEF54E4688979898A899B890E94541B6A
:101AD0002B966CAF7DAF8EAF9FAF2B972B968CADB7
:101AE0009DADAEADBFAD2B978C8B9D8BAE8BBF8B61
:101AF00020E030E040E85FE36C897D898E899F8932
:101B00000E94F71988232CF481E090E0998F888F48
:101B100061C020E03FEF4FE757E46C897D898E89F3
:101B20009F890E944F1B18160CF042C020E030E045
:101B300040E251E4688979898A899B890E94541B13
:101B40002F966CAF7DAF8EAF9FAF2F972F962CAD9A
:101B50003DAD4EAD5FAD2F972FA738AB49AB5AAB1C
:101B60006FA578A989A99AA90E946E1A63966CAF8D
:101B70007DAF8EAF9FAF639761964EAD5FAD6197BE
:101B8000598F488F10C088EC90E09B8F8A8F8A8D88
:101B90009B8D0197F1F79B8F8A8F0000888D998D1F
:101BA0000197998F888F888D998D892B61F71DC03A
:101BB0006C897D898E899F890E946E1A67966CAFA9
:101BC0007DAF8EAF9FAF679765968EAD9FAD6597E2
:101BD000998F888F888D998D9D8F8C8F8C8D9D8D01
:101BE0000197F1F79D8F8C8F00000E94EC050E94F9
:101BF0001A130E94070E89838981CA5ADF4F0FB6D4
:101C0000F894DEBF0FBECDBFDF91CF910895CF9383
:101C1000DF93CDB7DEB7AB970FB6F894DEBF0FBE3C
:101C2000CDBF0E94FA0E88E390E0DC018C91482F32
:101C300080914F01282F30E081E090E002C0880FB2
:101C4000991F2A95E2F78095242F282388E390E0B6
:101C5000FC0120838BE0682F80E00E94FD1688E362
:101C600090E0DC018C91482F80914F01282F30E0CB
:101C700081E090E002C0880F991F2A95E2F7242F97
:101C8000282B88E390E0FC01208385E0282F30E0BA
:101C900040E050E0288F398F4A8F5B8F688D798DB7
:101CA0008A8D9B8D0E949D1A688B798B8A8B9B8B6A
:101CB00088899989AA89BB898A839B83AC83BD83E0
:101CC00020E030E04AEF54E46A817B818C819D8181
:101CD0000E94541B6C8F7D8F8E8F9F8F2C8D3D8D1E
:101CE0004E8D5F8D2E833F834887598720E030E0FB
:101CF00040E85FE36E817F81888599850E94F719AE
:101D000088232CF481E090E09B878A8754C020E0F0
:101D10003FEF4FE757E46E817F81888599850E9468
:101D20004F1B1816D4F520E030E040E251E46A8100
:101D30007B818C819D810E94541B68A379A38AA317
:101D40009BA388A199A1AAA1BBA18C8B9D8BAE8BD3
:101D5000BF8B6C897D898E899F890E946E1A6CA3C6
:101D60007DA38EA39FA3ACA1BDA1BB87AA8710C0F2
:101D700088EC90E09D878C878C859D850197F1F795
:101D80009D878C8700008A859B8501979B878A8722
:101D90008A859B85892B61F719C06E817F81888533
:101DA00099850E946E1A68A779A78AA79BA7E8A5BC
:101DB000F9A5FB87EA878A859B859F878E878E8515
:101DC0009F850197F1F79F878E87000080E00E9432
:101DD000CC16282F9BE081E0291709F080E0898349
:101DE0008981AB960FB6F894DEBF0FBECDBFDF91F1
:101DF000CF9108950F931F93CF93DF93CDB7DEB7A5
:101E0000C75AD1090FB6F894DEBF0FBECDBF1092EE
:101E1000530119821A8297C387E10E94CC168B83E3
:101E20008B8180718C838C81882319F081E08A8377
:101E300093C380915501882309F4A6C188E390E0FB
:101E4000DC018C91482F80914F01282F30E081E0F8
:101E500090E002C0880F991F2A95E2F7242F282BC3
:101E600088E390E0FC0120838AE0282F30E040E006
:101E700050E068962CAF3DAF4EAF5FAF6897689665
:101E80006CAD7DAD8EAD9FAD68970E949D1A2C966E
:101E90006CAF7DAF8EAF9FAF2C972C968CAD9DAD68
:101EA000AEADBFAD2C9788879987AA87BB872BEAF1
:101EB0003AEA4AE250E4688579858A859B850E94E2
:101EC000541B6C966CAF7DAF8EAF9FAF6C976C96CA
:101ED0002CAD3DAD4EAD5FAD6C972C873D874E87E9
:101EE0005F8788859985AA85BB85A0968CAF9DAFB5
:101EF000AEAFBFAFA097A0962CAD3DAD4EAD5FADE0
:101F0000A097A0966CAD7DAD8EAD9FADA0970E94C1
:101F10008B19A4966CAF7DAF8EAF9FAFA497A4969C
:101F20002CAD3DAD4EAD5FADA497288B398B4A8B60
:101F30005B8B20E030E040E85FE36C857D858E853B
:101F40009F850E94F71988231CF481E08C8BFEC0CA
:101F500020E03FEF4FE757E4688979898A899B89B8
:101F60000E944F1B18160CF0B5C020E030E04AE785
:101F700054E4688579858A859B850E94FC19A8961A
:101F80006CAF7DAF8EAF9FAFA897A8968CAD9DAD7F
:101F9000AEADBFADA8978D8B9E8BAF8BB88F20E079
:101FA00030E04AEF54E46D897E898F89988D0E94D4
:101FB000541BAC966CAF7DAF8EAF9FAFAC97AC9619
:101FC0008CAD9DADAEADBFADAC97898F9A8FAB8F09
:101FD000BC8F20E030E040E85FE3698D7A8D8B8D27
:101FE0009C8D0E94F71988232CF481E090E09E8F4D
:101FF0008D8F65C020E03FEF4FE757E4698D7A8D04
:102000008B8D9C8D0E944F1B18160CF046C020E053
:1020100030E040E251E46D897E898F89988D0E947D
:10202000541BE0966CAF7DAF8EAF9FAFE097E0960C
:102030002CAD3DAD4EAD5FADE09760962CAF3DAFA2
:102040004EAF5FAF609760966CAD7DAD8EAD9FADCE
:1020500060970E946E1AE4966CAF7DAF8EAF9FAF13
:10206000E497E2964EAD5FADE2975E8F4D8F10C064
:1020700088EC90E098A38F8F8F8D98A10197F1F74E
:1020800098A38F8F00008D8D9E8D01979E8F8D8FD1
:102090008D8D9E8D892B61F759C0698D7A8D8B8DC1
:1020A0009C8D0E946E1AE8966CAF7DAF8EAF9FAF8D
:1020B000E897E6968EAD9FADE6979E8F8D8F8D8DBE
:1020C0009E8D9AA389A389A19AA10197F1F79AA35A
:1020D00089A33CC020E030E04FE753E46C857D8568
:1020E0008E859F850E944F1B1816F4F468897989A4
:1020F0008A899B890E946E1AEC966CAF7DAF8EAF79
:102100009FAFEC97EA96AEADBFADEA97BCA3ABA389
:102110008BA19CA19EA38DA38DA19EA10197F1F7F8
:102120009EA38DA3000019C06C857D858E859F853B
:102130000E946E1AC458DF4F688379838A839B8319
:10214000CC57D040ED96BFADED97BC8B8C898FA35B
:102150008FA18A95F1F78FA3000088E390E0FC013E
:102160008081482F80914F01282F30E081E090E05E
:1021700002C0880F991F2A95E2F78095242F282303
:1021800088E390E0DC012C9380E090E0A6E1B4E4E9
:1021900088A799A7AAA7BBA72BEA3AEA4AE250E484
:1021A00068A579A58AA59BA50E94541BC058DF4F3E
:1021B000688379838A839B83C058D040C058DF4F9F
:1021C000288139814A815B81C058D0402CA73DA726
:1021D0004EA75FA788A599A5AAA5BBA5CC57DF4F99
:1021E00088839983AA83BB83C458D040CC57DF4FE0
:1021F000288139814A815B81C458D040CC57DF4F58
:10220000688179818A819B81C458D0400E948B1952
:10221000C857DF4F688379838A839B83C858D0402F
:10222000C857DF4F288139814A815B81C858D04027
:1022300028AB39AB4AAB5BAB20E030E040E85FE372
:102240006CA57DA58EA59FA50E94F71988231CF477
:1022500081E08CAB42C120E03FEF4FE757E468A933
:1022600079A98AA99BA90E944F1B18160CF0DFC000
:1022700020E030E04AE754E468A579A58AA59BA54B
:102280000E94FC19C457DF4F688379838A839B833C
:10229000CC58D040C457DF4F88819981AA81BB8137
:1022A000CC58D0408DAB9EABAFABB8AF20E030E0A8
:1022B0004AEF54E46DA97EA98FA998AD0E94541BE2
:1022C000C057DF4F688379838A839B83C059D0408E
:1022D000C057DF4F88819981AA81BB81C059D04006
:1022E00089AF9AAFABAFBCAF20E030E040E85FE32E
:1022F00069AD7AAD8BAD9CAD0E94F71988232CF4A3
:1023000081E090E09EAF8DAF7BC020E03FEF4FE7D4
:1023100057E469AD7AAD8BAD9CAD0E944F1B18168A
:102320000CF058C020E030E040E251E46DA97EA9F5
:102330008FA998AD0E94541BCC56DF4F68837983D8
:102340008A839B83C459D040CC56DF4F2881398182
:102350004A815B81C459D04064962CAF3DAF4EAFEB
:102360005FAF649764966CAD7DAD8EAD9FAD6497A5
:102370000E946E1AC856DF4F688379838A839B83D5
:10238000C859D040C856DF4F48815981C859D040FC
:102390005EAF4DAF1AC028EC30E0CE01CF96DC0125
:1023A0002D933C93CE01CF96FC01808191810197C2
:1023B000F1F79E01215C3F4FD9018D939C93000062
:1023C0008DAD9EAD01979EAF8DAF8DAD9EAD892B2E
:1023D00011F783C069AD7AAD8BAD9CAD0E946E1ACA
:1023E000C456DF4F688379838A839B83CC59D0405E
:1023F000C456DF4FE881F981CC59D040FEAFEDAF34
:10240000CE018F5B9F4F2DAD3EADDC012D933C93F4
:10241000CE018F5B9F4FFC01808191810197F1F785
:102420009E012F5B3F4FD9018D939C9356C020E0B6
:1024300030E04FE753E46CA57DA58EA59FA50E94D3
:102440004F1B1816B4F58E010D5B1F4F68A979A9B3
:102450008AA99BA90E946E1AC056DF4F68837983B0
:102460008A839B83C05AD040C056DF4F2881398170
:10247000C05AD040F80131832083CE018B5B9F4F3F
:102480009E012D5B3F4FD9012D913C91FC01318381
:102490002083CE018B5B9F4FDC018D919C91019736
:1024A000F1F79E012B5B3F4FF90191838083000080
:1024B00028C06CA57DA58EA59FA50E946E1ACC553F
:1024C000DF4F688379838A839B83C45AD040CC557D
:1024D000DF4FF881C45AD040FCABCE01895B9F4FDF
:1024E0002CA9DC012C93CE01895B9F4FFC018081DC
:1024F000282F2A95F1F7CE01895B9F4FDC012C93A1
:10250000000087E00E94CC168D838D8180728E83BF
:102510008D8180718F838E81882329F060E287E02E
:102520000E94FD1610C08F81882369F020E040E0F2
:1025300050E061EE81E090E00E94301760E187E0BA
:102540000E94FD1609C0898191E0980F99839091AE
:102550003F01891708F460CC81E0809353018A81A0
:10256000C955DF4F0FB6F894DEBF0FBECDBFDF9168
:10257000CF911F910F910895CF93DF9300D000D09A
:10258000CDB7DEB79C838B83CE01029621E0AC01F0
:1025900060E680E090E00E9430172A818B819C8168
:1025A000AC0161E680E090E00E94301787E00E9475
:1025B000CC1689838981882F90E080749927892B94
:1025C00031F089818064682F87E00E94FD16000049
:1025D0000F900F900F900F90DF91CF910895CF93B0
:1025E000DF93CDB7DEB7809155018823B9F087E33B
:1025F00090E0FC018081482F80914F01282F30E02E
:1026000081E090E002C0880F991F2A95E2F780953B
:10261000242F282387E390E0FC01208380E00E94A0
:10262000CC168D7F682F80E00E94FD160000DF91A0
:10263000CF910895CF93DF93CDB7DEB72E970FB626
:10264000F894DEBF0FBECDBF80E00E94CC16682F8D
:102650008EE990E00E94AE1381E00E94CC16682FB4
:1026600085EA90E00E94AE1382E00E94CC16682FAB
:102670008BEA90E00E94AE1383E00E94CC16682F94
:1026800085EB90E00E94AE1384E00E94CC16682F88
:102690008EEB90E00E94AE1385E00E94CC16682F6E
:1026A00089EC90E00E94AE1386E00E94CC16682F61
:1026B0008FEC90E00E94AE1387E00E94CC16682F4A
:1026C00088ED90E00E94AE1388E00E94CC16682F3F
:1026D0008FED90E00E94AE1381E10E94CC16682F2E
:1026E0008AEE90E00E94AE1382E10E94CC16682F21
:1026F00083EF90E00E94AE1387E10E94CC16682F12
:102700008CEF90E00E94AE138CE10E94CC16682FF3
:1027100088E091E00E94AE138DE10E94CC16682FF4
:102720008EE091E00E94AE1389E0E6E1F1E0DE0187
:10273000169601900D928A95E1F745E0CE0101963B
:10274000BC0180E10E94DF1600002E960FB6F894BF
:10275000DEBF0FBECDBFDF91CF910895CF93DF9342
:10276000CDB7DEB7CB55D1090FB6F894DEBF0FBE9B
:10277000CDBF9AAB89AB6BAB8BA9882F90E09E0144
:10278000235E3F4F40E150E0B9010E94C11B89A97F
:102790009AA90E94B70780E090E0AAEFB3E48F8780
:1027A000988BA98BBA8B20E030E04AEF54E46F8518
:1027B000788989899A890E94541B6CAF7DAF8EAF4E
:1027C0009FAF8CAD9DADAEADBFAD8B8B9C8BAD8BFC
:1027D000BE8B20E030E040E85FE36B897C898D8927
:1027E0009E890E94F71988232CF481E090E0988F4D
:1027F0008F8B61C020E03FEF4FE757E46B897C8906
:102800008D899E890E944F1B18160CF042C020E053
:1028100030E040E251E46F85788989899A890E9485
:10282000541B24966CAF7DAF8EAF9FAF2497249638
:102830008CAD9DADAEADBFAD249788AF99AFAAAFBB
:10284000BBAF68AD79AD8AAD9BAD0E946E1A28967C
:102850006CAF7DAF8EAF9FAF28972696AEADBFAD64
:102860002697B88FAF8B10C088EC90E09A8F898F35
:10287000898D9A8D0197F1F79A8F898F00008F8942
:10288000988D0197988F8F8B8F89988D892B61F701
:102890001DC06B897C898D899E890E946E1A2C9639
:1028A0006CAF7DAF8EAF9FAF2C972A968EAD9FAD4C
:1028B0002A97988F8F8B8F89988D9C8F8B8F8B8D7C
:1028C0009C8D0197F1F79C8F8B8F00000E94EC0587
:1028D000CE014D960E94B70780E090E0AAEFB3E4E6
:1028E00089839A83AB83BC8320E030E04AEF54E4D1
:1028F00069817A818B819C810E94541B60966CAFA8
:102900007DAF8EAF9FAF609760968CAD9DADAEAD45
:10291000BFAD60978D839E83AF83B88720E030E0A2
:1029200040E85FE36D817E818F8198850E94F71971
:1029300088232CF481E090E09A87898761C020E0A9
:102940003FEF4FE757E46D817E818F8198850E942C
:102950004F1B18160CF042C020E030E040E251E47A
:1029600069817A818B819C810E94541B64966CAF33
:102970007DAF8EAF9FAF649764968CAD9DADAEADCD
:10298000BFAD64978CAB9DABAEABBFAB6CA97DA963
:102990008EA99FA90E946E1A68966CAF7DAF8EAF0C
:1029A0009FAF68976696AEADBFAD6697BA87A987A9
:1029B00010C088EC90E09C878B878B859C85019765
:1029C000F1F79C878B87000089859A8501979A8704
:1029D000898789859A85892B61F71DC06D817E81E4
:1029E0008F8198850E946E1A6C966CAF7DAF8EAF0A
:1029F0009FAF6C976A968EAD9FAD6A979A878987CD
:102A000089859A859E878D878D859E850197F1F7AB
:102A10009E878D8700000E94EC050000C55ADF4F9D
:102A20000FB6F894DEBF0FBECDBFDF91CF910895F2
:102A3000CF93DF93CDB7DEB7C055D1090FB6F89469
:102A4000DEBF0FBECDBF8BA36CA3198288E390E0DD
:102A5000DC018C91482F80914F01282F30E081E0DC
:102A600090E002C0880F991F2A95E2F78095242FE5
:102A7000282388E390E0FC0120836BA185E00E947D
:102A8000FD1688E390E0DC018C91482F80914F0186
:102A9000282F30E081E090E002C0880F991F2A952E
:102AA000E2F7242F282B88E390E0FC01208380E0CC
:102AB00090E0A8ECB3E48B839C83AD83BE832BEAC8
:102AC0003AEA4AE250E46B817C818D819E810E94CA
:102AD000541B69A77AA78BA79CA789A59AA5ABA524
:102AE000BCA58F839887A987BA878B819C81AD818C
:102AF000BE818DA79EA7AFA7B8AB2DA53EA54FA5BC
:102B000058A96DA57EA58FA598A90E948B1969ABC0
:102B10007AAB8BAB9CAB89A99AA9ABA9BCA98B87D3
:102B20009C87AD87BE8720E030E040E85FE36F819F
:102B3000788589859A850E94F71988231CF481E09D
:102B40008F87F0C020E03FEF4FE757E46B857C852F
:102B50008D859E850E944F1B18160CF0A9C020E0A1
:102B600030E04AE754E46B817C818D819E810E9434
:102B7000FC196DAB7EAB8FAB98AF8DA99EA9AFA9A9
:102B8000B8AD888B998BAA8BBB8B20E030E04AEFE5
:102B900054E4688979898A899B890E94541B69AFAA
:102BA0007AAF8BAF9CAF89AD9AADABADBCAD8C8B22
:102BB0009D8BAE8BBF8B20E030E040E85FE36C89FB
:102BC0007D898E899F890E94F71988232CF481E0E2
:102BD00090E0998F888F61C020E03FEF4FE757E486
:102BE0006C897D898E899F890E944F1B18160CF075
:102BF00042C020E030E040E251E4688979898A8966
:102C00009B890E94541B21966CAF7DAF8EAF9FAF06
:102C1000219721968CAD9DADAEADBFAD21978DA313
:102C20009EA3AFA3B8A76DA17EA18FA198A50E9476
:102C30006E1A25966CAF7DAF8EAF9FAF259723960A
:102C4000AEADBFAD2397B98FA88F10C088EC90E0D0
:102C50009B8F8A8F8A8D9B8D0197F1F79B8F8A8F2F
:102C60000000888D998D0197998F888F888D998D17
:102C7000892B61F757C06C897D898E899F890E9455
:102C80006E1A29966CAF7DAF8EAF9FAF29972796AE
:102C9000EEADFFAD2797F98FE88F888D998D9D8FC9
:102CA0008C8F8C8D9D8D0197F1F79D8F8C8F3AC005
:102CB00020E030E04FE753E46F81788589859A857D
:102CC0000E944F1B1816F4F46B857C858D859E85BC
:102CD0000E946E1A2D966CAF7DAF8EAF9FAF2D9771
:102CE0002B968EAD9FAD2B979F8F8E8F8E8D9F8D48
:102CF00099A388A388A199A10197F1F799A388A323
:102D0000000017C06F81788589859A850E946E1AA8
:102D100061966CAF7DAF8EAF9FAF61972E969FADE2
:102D20002E979F878F858AA38AA18A95F1F78AA318
:102D3000000088E390E0DC018C91482F80914F01E6
:102D4000282F30E081E090E002C0880F991F2A957B
:102D5000E2F78095242F282388E390E0FC0120836C
:102D600089E00E94CC168A838A81882319F08981A0
:102D70008F5F89838CA19FEF980F9CA3882309F014
:102D800080CE8981C05BDF4F0FB6F894DEBF0FBEE7
:102D9000CDBFDF91CF910895CF93DF9300D0CDB712
:102DA000DEB78A8341E0CE010196BC018A810E9490
:102DB000DF1689810F900F90DF91CF910895CF9307
:102DC000DF9300D000D0CDB7DEB789837B836A83E1
:102DD0004C838981382F3F718A819B812C81AC0182
:102DE000632F80E090E00E94301700000F900F905A
:102DF0000F900F90DF91CF910895CF93DF9300D084
:102E0000CDB7DEB789836A83CE01029641E0BC016B
:102E100089810E94111700000F900F90DF91CF91D0
:102E20000895CF93DF9300D000D0CDB7DEB789836C
:102E30007B836A834C8389818F71382F30628A81CA
:102E40009B812C81AC01632F81E090E00E943017C0
:102E500000000F900F900F900F90DF91CF91089589
:102E6000CF93DF93CDB7DEB72A970FB6F894DEBFC6
:102E70000FBECDBF9E838D836F83598748872A8776
:102E8000888599859B838A83F89488E390E0FC0188
:102E90008081482F80915001282F30E081E090E020
:102EA00002C0880F991F2A95E2F78095242F2823C6
:102EB00088E390E0FC0120838091440190914501DA
:102EC000A0914601BC018A2F0E9449008F810E9477
:102ED000CE0119821DC08981882F90E02A813B8113
:102EE000820F931FFC0180810E94CE018C838D8113
:102EF0009E81892B51F48981882F90E02A813B8122
:102F0000820F931F2C81FC01208389818F5F89832D
:102F100099818A859817F8F287E390E0FC01808117
:102F2000482F80915001282F30E081E090E002C0CE
:102F3000880F991F2A95E2F7242F282B87E390E02A
:102F4000FC012083789400002A960FB6F894DEBF27
:102F50000FBECDBFDF91CF9108958F929F92AF9218
:102F6000BF92CF92DF92EF92FF920F931F93CF9376
:102F7000DF93CDB7DEB7AF970FB6F894DEBF0FBEC5
:102F8000CDBF0E94F9030E94CC0608C00E94EC0548
:102F900082E291E00E94B7070E941A1394E084E055
:102FA00050E0EE24E39404E620E030E0492F682F5F
:102FB000852F0E947C0B882349F30E94EC058DE24B
:102FC00091E00E94B7070E944804822E932EA42EFF
:102FD000B52EC62ED72EE82EF92E8E829F82A88679
:102FE000B986CA86DB86EC86FD8600000E9448040E
:102FF000822E932EA42EB52EC62ED72EE82EF92E75
:10300000282D392D4A2D5B2D6C2D7D2D8E2D9F2D3C
:10301000AE80BF80C884D984EA84FB840C851D857A
:103020000E946619822E932EA42EB52EC62ED72E60
:10303000E82EF92E282D392D4A2D5B2D6C2D7D2D56
:103040008E2D9F2D2F393648414051056105710560
:103050008105910559F250F2198285E0EAE3F1E029
:10306000DE019B9601900D928A95E1F71A821A82F1
:103070000DC08A81882F90E09E01295E3F4F820F0C
:10308000931FFC0110828A818F5F8A838A81843139
:1030900080F31982DFC06FEF89810E9418158E8737
:1030A0008981882F90E09E01255D3F4F4AE050E0E6
:1030B000B9010E94C11B1B821C821C821AC08C8118
:1030C000282F30E08B8191E0980F9B83882F90E030
:1030D000AE01455D5F4F240F351FF90140819E0110
:1030E000295E3F4F820F931FFC0140838C818F5FCD
:1030F0008C838C81853060F48C81882F90E09E01D8
:10310000255D3F4F820F931FFC0180818823B9F614
:103110008B8191E0980F9B83882F90E09E01295E20
:103120003F4F820F931F2AE3FC0120838E85882F57
:1031300090E09E01255D3F4F4AE050E0B9010E94BA
:10314000C11B1D821D821AC08D81282F30E08B810A
:1031500091E0980F9B83882F90E0AE01455D5F4F13
:10316000240F351FF90140819E01295E3F4F820FD8
:10317000931FFC0140838D818F5F8D838D8185300E
:1031800060F48D81882F90E09E01255D3F4F820F76
:10319000931FFC0180818823B9F68B81882F90E0F2
:1031A0009E01295E3F4F820F931F28E7FC01208379
:1031B0000E94EC05CE0147960E94B7070E94480482
:1031C000822E932EA42EB52EC62ED72EE82EF92EA3
:1031D0008F86988AA98ABA8ACB8ADC8AED8AFE8A87
:1031E00000000E944804822E932EA42EB52EC62ED7
:1031F000D72EE82EF92E282D392D4A2D5B2D6C2D3A
:103200007D2D8E2D9F2DAF84B888C988DA88EB88F4
:10321000FC880D891E890E946619822E932EA42E89
:10322000B52EC62ED72EE82EF92E282D392D4A2D53
:103230005B2D6C2D7D2D8E2D9F2D2F3936484140D5
:103240005105610571058105910559F250F2898199
:103250008F5F89838DE79981891708F01CCFFFCF95
:10326000A1E21A2EAA1BBB1BFD010DC0AA1FBB1F8A
:10327000EE1FFF1FA217B307E407F50720F0A21BFC
:10328000B30BE40BF50B661F771F881F991F1A9469
:1032900069F760957095809590959B01AC01BD0193
:1032A000CF0108950E947B19A59F900DB49F900DAA
:1032B000A49F800D911D112408952A0D3B1D4C1DC6
:1032C0005D1D6E1D7F1D801F911F08952A193B09EA
:1032D0004C095D096E097F09800B910B089500244C
:1032E000A7FD00942A1730054005500560057005BC
:1032F000800590050895A29FB001B39FC001A39FD0
:10330000700D811D1124911DB29F700D811D11241E
:10331000911D08955058BB27AA270E94A2190C940A
:10332000151B0E94071B38F00E940E1B20F039F479
:103330009F3F19F426F40C94041B0EF4E095E7FB70
:103340000C94FE1AE92F0E94261B58F3BA17620745
:1033500073078407950720F079F4A6F50C94481BB1
:103360000EF4E0950B2EBA2FA02D0B01B9019001A0
:103370000C01CA01A0011124FF27591B99F0593FE4
:1033800050F4503E68F11A16F040A22F232F342F2C
:103390004427585FF3CF469537952795A795F0407A
:1033A0005395C9F77EF41F16BA0B620B730B840B8F
:1033B000BAF09150A1F0FF0FBB1F661F771F881F47
:1033C000C2F70EC0BA0F621F731F841F48F487959F
:1033D00077956795B795F7959E3F08F0B0CF939591
:1033E000880F08F09927EE0F9795879508950E940A
:1033F000DA1A08F481E008950E94101A0C94151B43
:103400000E940E1B58F00E94071B40F029F45F3FFA
:1034100029F00C94FE1A51110C94491B0C94041BB6
:103420000E94261B68F39923B1F3552391F3951B52
:10343000550BBB27AA2762177307840738F09F5FD5
:103440005F4F220F331F441FAA1FA9F335D00E2E42
:103450003AF0E0E832D091505040E695001CCAF7AF
:103460002BD0FE2F29D0660F771F881FBB1F261772
:1034700037074807AB07B0E809F0BB0B802DBF0149
:10348000FF2793585F4F3AF09E3F510578F00C9418
:10349000FE1A0C94491B5F3FE4F3983ED4F38695E3
:1034A00077956795B795F7959F5FC9F7880F911D39
:1034B0009695879597F90895E1E0660F771F881F25
:1034C000BB1F621773078407BA0720F0621B730BD8
:1034D000840BBA0BEE1F88F7E09508950E942E1B0F
:1034E00088F09F5798F0B92F9927B751B0F0E1F0C5
:1034F000660F771F881F991F1AF0BA95C9F714C075
:10350000B13091F00E94481BB1E008950C94481B23
:10351000672F782F8827B85F39F0B93FCCF38695AD
:1035200077956795B395D9F73EF49095809570950A
:1035300061957F4F8F4F9F4F0895E89409C097FB87
:103540003EF490958095709561957F4F8F4F9F4F7A
:103550009923A9F0F92F96E9BB279395F6958795BE
:1035600077956795B795F111F8CFFAF4BB0F11F481
:1035700060FF1BC06F5F7F4F8F4F9F4F16C0882328
:1035800011F096E911C0772321F09EE8872F762F5E
:1035900005C0662371F096E8862F70E060E02AF09F
:1035A0009A95660F771F881FDAF7880F969587958B
:1035B00097F90895990F0008550FAA0BE0E8FEEF60
:1035C00016161706E807F907C0F012161306E407E7
:1035D000F50798F0621B730B840B950B39F40A26E0
:1035E00061F0232B242B252B21F408950A2609F4BE
:1035F000A140A6958FEF811D811D089597F99F67C2
:1036000080E870E060E008959FEF80EC089500246A
:103610000A941616170618060906089500240A9437
:1036200012161306140605060895092E0394000CBD
:1036300011F4882352F0BB0F40F4BF2B11F460FF4C
:1036400004C06F5F7F4F8F4F9F4F089557FD905875
:10365000440F551F59F05F3F71F04795880F97FB56
:10366000991F61F09F3F79F0879508951216130610
:103670001406551FF2CF4695F1DF08C0161617063F
:103680001806991FF1CF8695710561050894089574
:10369000E894BB2766277727CB0197F908950E9406
:1036A000DA1A08F48FEF08950E94671B0C94151B1B
:1036B0000E94071B38F00E940E1B20F0952311F08A
:1036C0000C94FE1A0C94041B11240C94491B0E94A8
:1036D000261B70F3959FC1F3950F50E0551F629F15
:1036E000F001729FBB27F00DB11D639FAA27F00D5B
:1036F000B11DAA1F649F6627B00DA11D661F829F82
:103700002227B00DA11D621F739FB00DA11D621F66
:10371000839FA00D611D221F749F3327A00D611D83
:10372000231F849F600D211D822F762F6A2F112465
:103730009F5750409AF0F1F088234AF0EE0FFF1F98
:10374000BB1F661F771F881F91505040A9F79E3FEF
:10375000510580F00C94FE1A0C94491B5F3FE4F372
:10376000983ED4F3869577956795B795F795E79545
:103770009F5FC1F7FE2B880F911D9695879597F94E
:1037800008954532510520F4423010F00C94CC1BC2
:10379000FB011082CB010895BB274A3031F49923F5
:1037A00022F4BDE2909581959F4F0C94D81BBB27C6
:1037B000FB015527AA27880F991FAA1FA41710F0ED
:1037C000A41B83955051B9F7A05DAA3308F0A95DF9
:1037D000A193009779F7B111B1931192CB010C9499
:1037E000F11BDC01FC01672F71917723E1F7329720
:1037F00004C07C916D9370836291AE17BF07C8F3CC
:063800000895F894FFCFCB
:10380600FFFF087D010203040B00093D00F401647B
:10381600050A626567616E20696E697400646F6E81
:10382600652070696E7300626567696E20726164F7
:10383600696F00646F6E6520726164696F00434F43
:103846004E46494700454E5F414100454E5F52583E
:10385600414444520053455455505F415700534527
:103866005455505F524554520052465F43480052E9
:10387600465F534554555000535441545553004FD9
:103886004253455256455F54580052585F50575F51
:1038960050300052585F50575F5031004649464FEE
:1038A6005F5354415455530044594E5044004645C5
:1038B60041545552450054585F414444522000003B
:1038C600040463616E277420636F6D6D00583D7349
:1038D60069676E616C20676F740000000000005A13
:00000001FF
