:100000000C942A000C9447000C9447000C94470071
:100010000C9447000C9447000C9447000C94470044
:100020000C9447000C94EE000C9447000C9447008D
:100030000C9447000C9447000C9447000C94470024
:100040000C9447000C9447000C9447000C94470014
:100050000C94470011241FBECFE5D8E0DEBFCDBF12
:1000600010E0A0E6B0E0ECE1FBE002C005900D92EC
:10007000A438B107D9F720E0A4E8B0E001C01D9290
:10008000AC38B207E1F70E94FF040C948C050C9485
:10009000000086B78F7D846986BF06B604FCFDCF5D
:1000A00008951FBC8EB5877E8EBD8EB584608EBDD3
:1000B0008EB58D7F8EBD8EB58E7F8EBD1DBC1CBC5A
:1000C0001092840010928500109286001092870092
:1000D000109288001092890010928A0010928B0072
:1000E00089B7846089BF78940895AF92BF92CF9208
:1000F000DF92EF92FF920F931F93CF93DF932FB76F
:10010000F8948CB59DB5A0908400B0908500C09007
:100110008600D0908700E0908800F09089000091E0
:100120008A0010918B002FBF9C0140E050E060E0FE
:1001300070E080E090E00E945F05DF91CF911F9119
:100140000F91FF90EF90DF90CF90BF90AF90089508
:10015000AF92BF92CF92DF92EF92FF920F931F93D5
:10016000CF93DF938CB59DB5A0908400B0908500AF
:10017000C0908600D0908700E0908800F0908900C1
:1001800000918A0010918B009C0140E050E060E0FB
:1001900070E080E090E00E945F05DF91CF911F91B9
:1001A0000F91FF90EF90DF90CF90BF90AF900895A8
:1001B0008FB7F8941DBC1CBC10928400109285006F
:1001C0001092860010928700109288001092890089
:1001D00010928A0010928B008FBF08952F932FB733
:1001E0002F933F934F935F936F937F938F939F933F
:1001F00020918400309185004091860050918700C5
:10020000609188007091890080918A0090918B00A4
:100210004F5F5F4F6F4F7F4F8F4F9F4F20938400F3
:100220003093850040938600509387006093880048
:100230007093890080938A0090938B009F918F9197
:100240007F916F915F914F913F912F912FBF2F9190
:10025000189586B78F7E846A86BF06B607FEFDCFE7
:1002600091B1987F983019F081E0903109F480E0E5
:100270000895CF93C6E10E942901811102C0CF9158
:100280000895C150C1F781E0FACF83B986B78F7C5A
:10029000846886BF06B607FEFDCF81B1887F8831AE
:1002A00041F0883231F0803421F0883321F081E050
:1002B000089580E0089582E00895CF92DF92EF9252
:1002C000FF920F931F93CF93DF93082F6B01F42EB0
:1002D00010E00E943901C82F811127C0000F802F24
:1002E0000E944501C82FE12CD0E08823A1F00E9494
:1002F00049001F5F1A3069F7C1E017C0F601ED0F22
:10030000F11D80810E944501823089F3882311F01C
:10031000D150E394DF5FDF1520F485E0E812EECFE3
:10032000D8CFDF11D6CF0E9449008C2FDF91CF911B
:100330001F910F91FF90EF90DF90CF90089596B7A7
:10034000882341F09F78946896BF06B607FEFDCFDC
:1003500083B108959F7C9064F6CFDF92EF92FF9275
:100360000F931F93CF93DF93F82E8B01D42F8AE046
:10037000E82E41110AC0C1E08C2FDF91CF911F916F
:100380000F91FF90EF90DF9008950E943901C82FE0
:100390008111F2CFFF0C6894F0F88F2D0E94450177
:1003A000C82F882331F00E944900EA94EE2019F307
:1003B000ECCFD150D02E78018E2D8D198D1750F0A5
:1003C0000D0F111D81E00E949F01F80180830E94A2
:1003D0004900D2CF80E00E949F01F70181937F0105
:1003E000EBCFCF93DF9300D000D0CDB7DEB7DC01E9
:1003F000A13981E0B80714F0A0E9B1E028EE33E0BC
:100400000E94580569837A838B839C8360E072E144
:100410008AE790E029813A814B815C810E94360510
:10042000205131094109510956954795379527952E
:1004300020B981B18C7F81B90F900F900F900F90F0
:10044000DF91CF910895CF93DF930F92CDB7DEB7B1
:1004500088E08093600080916000898341E0BE0164
:100460006F5F7F4F87E20E945D010F90DF91CF9118
:100470000895CF93DF930F92CDB7DEB7109260004F
:1004800080916000898341E0BE016F5F7F4F87E20A
:100490000E945D010F90DF91CF9108952F923F92BE
:1004A0004F925F926F927F928F929F92AF92BF9284
:1004B000CF92DF92EF92FF920F931F93CF93DF9330
:1004C000CDB7DEB728970FB6F894DEBF0FBECDBF0D
:1004D00080916000826F8B8380916000866F8C8337
:1004E0001E0183E0280E311C41E0B10187E20E9429
:1004F0005D010E94750029013A014B018D839E83A5
:100500000E9475005201630174010D811E810E94D9
:100510006805A1E00E94710599F390F32E0184E033
:10052000480E511C41E0B20187E20E945D010E9429
:10053000750039014A016D837E838F8398870E94FD
:10054000750053016401ED80FE800F8118850E94C3
:100550006805A1E00E94710591F388F341E0BE01B6
:100560006F5F7F4F87E20E94AD018823D1F08FEF4C
:1005700028960FB6F894DEBF0FBECDBFDF91CF91A6
:100580001F910F91FF90EF90DF90CF90BF90AF90B1
:100590009F908F907F906F905F904F903F902F90A3
:1005A000089541E0B10187E20E945D010E9475005B
:1005B00039014A016D837E838F8398870E9475007D
:1005C00053016401ED80FE800F8118850E9468054B
:1005D000A1E00E94710591F388F341E0B20187E246
:1005E0000E945D010E94750029013A014B018D8333
:1005F0009E830E9475005201630174010D811E816A
:100600000E946805A1E00E94710599F390F341E012
:10061000BE016E5F7F4F87E20E94AD018111A7CFBF
:1006200041E0B10187E20E945D010E94750019015D
:100630002A013B014C010E947500510162017301C6
:1006400084010E946805A1E00E947105A1F398F35E
:100650008A8182958F7099819078892B89CF4F926A
:100660005F926F927F928F929F92AF92BF92CF9242
:10067000DF92EF92FF920F931F93CF93DF930E942D
:10068000750029013A014B01D82FC92F0E9475002E
:100690005201630174010D2F1C2F0E9468052F3930
:1006A000364841405105610571058105910519F0F4
:1006B00010F080E004C00E944E0287FDE7CFDF917A
:1006C000CF911F910F91FF90EF90DF90CF90BF904F
:1006D000AF909F908F907F906F905F904F90089514
:1006E0002F923F924F925F926F927F928F929F9242
:1006F000AF92BF92CF92DF92EF92FF920F931F9330
:10070000CF93DF9300D00F92CDB7DEB7382F32955D
:10071000307F20916000232B298390916000932BE0
:10072000892F84608A8380916000832B8B8366236A
:1007300031F02160298395609A8381608B8343E047
:10074000BE016F5F7F4F87E20E945D010E947500CE
:1007500019012A013B014C010E94750051016201FF
:10076000730184010E946805A1E00E947105A1F354
:1007700098F30F900F900F90DF91CF911F910F91F1
:10078000FF90EF90DF90CF90BF90AF909F908F90B1
:100790007F906F905F904F903F902F900895CF93F0
:1007A000C82F0E942F0360E08C2F82958F700E94CB
:1007B000700360E08C2F8F70CF910C9470034F9278
:1007C0005F926F927F928F929F92AF92BF92CF92E1
:1007D000DF92EF92FF920F931F93CF93DF9381E00D
:1007E0000E94CF030E94750029013A014B01D82FC6
:1007F000C92F0E9475005201630174010D2F1C2F37
:100800000E946805AEE30E94710599F390F3DF91B1
:10081000CF911F910F91FF90EF90DF90CF90BF90FD
:10082000AF909F908F907F906F905F904F900895C2
:100830004F925F926F927F928F929F92AF92BF92F0
:10084000CF92DF92EF92FF920F931F93CF93DF939C
:1008500082E00E94CF030E94750029013A014B01FA
:10086000D82FC92F0E9475005201630174010D2F0A
:100870001C2F0E946805AEE30E94710599F390F366
:10088000DF91CF911F910F91FF90EF90DF90CF906C
:10089000BF90AF909F908F907F906F905F904F90A0
:1008A0000895CF93C82F0E942F0361E08C2F82956B
:1008B0008F700E94700361E08C2F8F70CF910C9429
:1008C00070031F93CF93DF93EC0110E0FE01E10F63
:1008D000F11D8081811104C0DF91CF911F91089596
:1008E0000E9451041F5FF2CF0F931F93CF93DF93AA
:1008F0008C0128E0629FC001112480640E94CF0314
:10090000E801085F1F4F89910E945104C017D10769
:10091000D1F7DF91CF911F910F91089584E690E078
:100920000C94F1010E948E040E94D8000E94750070
:100930002A31364041055105610571058105910552
:10094000A9F3A0F30E9423020E94D8000E94750020
:1009500024333C4041055105610571058105910530
:10096000A9F3A0F360E083E00E9470030E94D80026
:100970000E9475002B38310541055105610571054F
:1009800081059105A9F3A0F360E083E00E94700364
:100990000E94D8000E9475002B3831054105510591
:1009A0006105710581059105A9F3A0F360E083E07D
:1009B0000E9470030E94D8000E947500A4E00E946B
:1009C0007105D1F3C8F360E082E00E9470030E94D9
:1009D000D8000E947500A1E00E947105D1F3C8F310
:1009E00088E20E94CF038CE00E94CF030E94DF03C5
:1009F00086E00E94CF030E9418040C9423020E94F8
:100A000051000E94920481E690E00E94610480EC13
:100A10000E94CF0387E690E00E9461040E94750067
:100A200029013A014B01D82FC92F0E9475005201AC
:100A3000630174010D2F1C2F0E9468052F39364861
:100A400041405105610571058105910571F368F318
:100A50000E94DF038EE690E00E94610480EC0E9419
:100A6000CF038AE790E00E946104FFCFA1E21A2E33
:100A7000AA1BBB1BFD010DC0AA1FBB1FEE1FFF1F42
:100A8000A217B307E407F50720F0A21BB30BE40B92
:100A9000F50B661F771F881F991F1A9469F76095D9
:100AA0007095809590959B01AC01BD01CF01089593
:100AB0000E947D05B7FF0895821B930B08952A0DB0
:100AC0003B1D4C1D5D1D6E1D7F1D801F911F0895D8
:100AD0002A193B094C095D096E097F09800B910BAE
:100AE00008950024A7FD00942A17300540055005FD
:100AF00060057005800590050895A29FB001B39F21
:100B0000C001A39F700D811D1124911DB29F700D16
:0C0B1000811D1124911D0895F894FFCF61
:100B1C000848656C6C6F00576F726C642100416CF7
:100B2C0076796E655A2077617300202020486572B3
:040B3C00652121000E
:00000001FF
